:100000000C9436000C9453000C9453000C94530041
:100010000C9453000C9453000C9453000C94630004
:100020000C9453000C9453000C9453000C94530004
:100030000C9453000C9453000C9453000C945300F4
:100040000C9453000C9453000C9453000C945300E4
:100050000C94530004B6E704B6D304B6C704B6C381
:1000600002900703AC8103AC8002900011241FBEF4
:10007000CFE5D8E0DEBFCDBF10E0A0E6B0E0E4EF12
:10008000FFE002C005900D92A03FB107D9F720E034
:10009000A0EFB0E001C01D92A93FB207E1F70E94B6
:1000A000F0030C94F8070C9400001DBC1CBC89E6FE
:1000B00098E19BBD8ABD80E48FBD8CE08EBD80E160
:1000C00089BF789408951F921FB61F9211248F93B1
:1000D0009F93AF93BF938091F5009091F600A0910C
:1000E000F700B091F8000196A11DB11D8093F500B5
:1000F0009093F600A093F700B093F80091E09093EE
:10010000F00085B3892785BBBF91AF919F918F91F7
:100110001F901FBE1F901895FC0160830895FC017D
:1001200017B897B180818F71907E892B87B987EC42
:1001300086B9369A349BFECF84B195B1089508955F
:10014000CF93DF930F92CDB7DEB787E08983CE01DF
:1001500001960E948F009C01DF9A8FE99FE0019732
:10016000F1F700C00000DF98C90182559140853049
:100170009105B0F08A5B9F4F87309105B0F08C5BA2
:100180009F4F8730910598F08C5B9F4F079788F0C1
:10019000205431098FEF2730310518F485E001C074
:1001A00081E00F90DF91CF91089582E0FACF83E054
:1001B000F8CF84E0F6CF12BE1CBE83E083BF81E09F
:1001C00089BF7894089512BE8AEF8CBF83E083BF05
:1001D00082E089BF789408958F929F92AF92BF92E8
:1001E000EF92FF920F931F93FC0147015801608328
:1001F0004183228383829482A582B68290B5413066
:10020000A1F5906290BD2130A1F580B580BD683028
:10021000C1F1A0F56630C1F16730D1F1A5019401BB
:1002200084E0220F331F441F551F8A95D1F760E0E9
:1002300074E284EF90E00E94DF048FEF820F89B9AF
:100240002150310941095109232F342F452F5527BA
:1002500020BD8AB188618AB91F910F91FF90EF90FC
:10026000BF90AF909F908F900895423059F6906361
:10027000C9CF223061F680B58860C8CF693071F689
:10028000529A80B5866002C080B5826080BDC6CFBC
:1002900080B58460FBCF08955D9BFECF6CB9089557
:1002A0000F931F93CF93DF938C01EB01699166232A
:1002B00021F0C8010E944C01F9CFDF91CF911F912D
:1002C0000F9108955F9BFECF8CB1089524E1FC014E
:1002D00011922A95E9F70895CF93DF930F92CDB746
:1002E000DEB7CE0101960E948C00CE0101960E94DD
:1002F0008F000F90DF91CF910895CF93DF9300D0BF
:1003000000D0CDB7DEB79B01A8E8B3E10E9401059C
:10031000DC01CB012AE0B695A795979587952A959C
:10032000D1F70F900F900F900F90DF91CF9108951C
:100330005F926F927F928F929F92AF92BF92CF9275
:10034000DF92EF92FF920F931F93CF93DF93CDB77E
:10035000DEB7CB56D1090FB6F894DEBF0FBECDBFC6
:10036000B62E6A01622E532EAE2C9F2C802E712E3B
:10037000E12C11EEF12E00E010E021E040E068E019
:10038000CE018B599F4F0E94EC00BB2009F447C05F
:10039000F60164825582C6010E948103811119C051
:1003A000B12C8B2DC559DF4F0FB6F894DEBF0FBEB1
:1003B000CDBFDF91CF911F910F91FF90EF90DF9014
:1003C000CF90BF90AF909F908F907F906F905F90F5
:1003D000089585B392E0892785BB5F926F92F601FD
:1003E00081818F9380818F937F928F929F92AF9222
:1003F00089E790E09F938F938E010F5F1F4F1F93AC
:100400000F930E942205B801CE018B599F4F0E9485
:1004100050010FB6F894DEBF0FBECDBFC2CFC601EC
:100420000E948103882309F4BBCF85B394E0892718
:1004300085BBF60181818F9380818F937F928F920C
:100440009F92AF9280E990E09F938F938E010F5F10
:100450001F4F1F930F930E942205B801CE018B59A5
:100460009F4F0E9450010FB6F894DEBF0FBECDBF64
:10047000BB24B39496CFFC01DC01449612962D91D7
:100480003C9113972D933D93A817B907B9F7628B49
:10049000738B0895CF92DF92EF92FF920F931F9389
:1004A000CF93DF93CDB7DEB7C550D1400FB6F894E8
:1004B000DEBF0FBECDBF6C01E12C11EEF12E00E0CE
:1004C00010E021E040E068E0CE0185509F4F0E949F
:1004D000EC00F601B6016C5E7F4FCE5FDE4F1882F6
:1004E00019821A821B82C250D14050E040E02FEFA7
:1004F0003FEF81919191CE5FDE4FE880F9800A81D4
:100500001B81C250D140E80EF91E011D111DCE5FA6
:10051000DE4FE882F9820A831B83C250D1408217E2
:10052000930708F49C014817590708F4AC01E61733
:10053000F707F9F65F934F933F932F93CE5FDE4F0C
:10054000688179818A819B81C250D1402AE030E064
:1005500040E050E00E94DF043F932F9380EA90E058
:100560009F938F938E010F5F1F4F1F930F930E94D6
:100570002205B801CE0185509F4F0E9450010FB651
:10058000F894DEBF0FBECDBFCB5FDE4F0FB6F89441
:10059000DEBF0FBECDBFDF91CF911F910F91FF90B6
:1005A000EF90DF90CF900895CF93DF93D82FC62F91
:1005B000C09882E00E94EB038D2F0E94EB038C2FEA
:1005C0000E94EB03C09ADF91CF910895CF93C82F7B
:1005D000C09883E00E94EB038C2F0E94EB038FEF07
:1005E0000E94EB03C09ACF9108951F93CF93DF939E
:1005F000182FD62FC42FC09885E00E94EB03812FBF
:100600000E94EB038D2F0E94EB038C2F0E94EB03C3
:10061000C09ADF91CF911F910895C0980E94EB037B
:100620008FEF0E94EB03C09A0895EF92FF921F9301
:10063000CF93DF93C82F883038F080E0DF91CF91DF
:100640001F91FF90EF900895C09AB89AC49ABC9AEF
:10065000C798C598C698BF9ABD9ABE980E94E603EF
:10066000C09880EC0E94EB038FE99FE00197F1F7BF
:1006700000C00000C09AEFE3FCE93197F1F700C039
:100680000000C09882E00E94EB0388E20E94EB0326
:10069000EC2FF0E0EF01CC0FDD1FCE0FDF1FCE01FE
:1006A0008C5A9F4F7C0113E0F70184910E94EB0369
:1006B0001150FFEFEF1AFF0A1111F6CF83E00E94ED
:1006C000EB03C09A60E08DE00E94D402B998C19A11
:1006D00060E08CE00E94D40289E20E94E602182FBA
:1006E000CB5ADF4FFE01C49160E08FE00E94D4023C
:1006F0001C13A3CF8EE00E94E602807ED9F781E032
:100700009DCFFF920F931F93CF93DF938C0180EACD
:100710000E940D03C82FC47082FF08C084FF05C06B
:10072000C4E086FF03C0C0E024C0C2E0C0988C2FA4
:1007300080640E94EB03C8010E94CE03F801D381BC
:10074000DF708281F82FF170FF2E80FF19C08D2F8E
:1007500080640E94EB03C09AF5E0FA95F1F700007F
:10076000C098C11101C0C1E08C2F80680E94EB03CA
:10077000C09A8C2FDF91CF911F910F91FF90089518
:100780008D2F0E94EB030C5F1F4FFD1621F3F80124
:1007900081918F010E94EB03F394F7CFFC018081DC
:1007A000918123E0969587952A95E1F78FB980810D
:1007B0008295880F807E779BFECF9FB10E94EB03CE
:1007C00080E00E94EB0380E00C94EB0381E58DB99F
:1007D00081E08EB908958FB9779BFECF8FB10895D0
:1007E000CDB7DEB7CB59D1090FB6F894DEBF0FBE37
:1007F000CDBF8FEF84BB15BA2FEF31EE94E02150BF
:1008000030409040E1F700C0000085BBCE018B591D
:100810009F4F0E946601E12C11EEF12E00E010E0E6
:1008200021E040E068E0CE018F569F4F0E94EC002F
:1008300086E00E94150383E390E0CB57DF4F998356
:100840008883C558D040C957DF4F8881C758D040EA
:100850008E7FC957DF4F8883C758D04082E0C85782
:10086000DF4F8883C858D04082E390E0EB969FAF7B
:100870008EAFEB97EC968FADEC978E7FEC968FAFAB
:10088000EC97ED961FAEED9760E670E0CE01019615
:100890000E941B05BE016F5F7F4FCE018F569F4F99
:1008A0000E945001AFEFB9E628E1A150B0402040CE
:1008B000E1F700C000000E94550098E0A92EB12C7D
:1008C0008091F0008823E1F3F8942091F5003091B5
:1008D000F6004091F7005091F800A4E6B0E00E94C5
:1008E0001005C856DF4F688379838A839B83C85974
:1008F000D0406093F1007093F2008093F3009093E6
:10090000F4007894B3941092F00066E0CE018B5915
:100910009F4F0E946C01BC01CE018B599F4F0E94DA
:100920007D016C01BC01CE018B599F4F0E943B029F
:1009300034EFC31631E0D30650F5B0FC1CC08091F3
:10094000F1009091F200A091F300B091F400C8562C
:10095000DF4F88839983AA83BB83C859D0407C0129
:100960008D019601AE0147585F4F60E0CE018B5973
:100970009F4F0E9498019AE0B912A2CF85B38A25B1
:1009800085BBCE018B599F4F0E944A0298CF809120
:10099000F1009091F200A091F300B091F400C856DC
:1009A000DF4F88839983AA83BB83C859D0407C01D9
:1009B0008D019601AE014B575F4F61E0D7CFA1E2A9
:1009C0001A2EAA1BBB1BFD010DC0AA1FBB1FEE1FC9
:1009D000FF1FA217B307E407F50720F0A21BB30B14
:1009E000E40BF50B661F771F881F991F1A9469F790
:1009F00060957095809590959B01AC01BD01CF01EC
:100A00000895A29FB001B39FC001A39F700D811DE7
:100A10001124911DB29F700D811D1124911D089507
:100A20000E940105A59F900DB49F900DA49F800D7D
:100A3000911D11240895FB01DC0101900D9200200D
:100A4000E1F70895AEE0B0E0E8E2F5E00C94CF07FE
:100A50000D891E8986E08C831A8309838FEF9FE7B7
:100A60009E838D83AE01475E5F4F6F89788DCE0187
:100A700001960E9445052F813885020F131FF8014A
:100A800010822E96E4E00C94EB07AFE0B0E0EBE4CC
:100A9000F5E00C94C1077C013B018A01DC0117964B
:100AA0001C921E92169713968C9181FFC3C19AE0F7
:100AB000292EFE0131964F01D70113969C91F30127
:100AC00093FD859193FF81913F01882309F448C1EB
:100AD000853239F493FD859193FF81913F018532F1
:100AE00029F4B70190E00E943307E6CFB12C412CE6
:100AF000512CBFE1B51538F08B3209F188F4803202
:100B000001F1833221F157FC3AC020ED280F2A3041
:100B100040F556FE1FC0B29C200D1124B22E06C017
:100B20008D3291F0803379F7689450F8F30193FD9A
:100B3000859193FF81913F018111DBCF20C06894A3
:100B400051F8689452F8F2CF689453F8EFCF689454
:100B500054F8ECCF429C200D1124422E689455F895
:100B6000E5CF8E3229F456FCFBC0689456F8DECFF0
:100B70008C3619F4689457F8D9CF8836B9F2982F83
:100B80009F7D95549330C0F08336A1F18337C1F136
:100B9000833509F05BC0D801CD90DD908D016B2DC0
:100BA00070E056FC02C06FEF7FEFC6010E941D0788
:100BB0005C01689457F80AC00C5F1F4FEFE3E983AC
:100BC000AA24A394B12C6401E89457F853FC04C000
:100BD0004A141B0409F018F5342CA114B10431F5A2
:100BE000332009F469CFB70180E290E00E94330717
:100BF0003A94F6CFD8018C9189830E5F1F4FE0CFD6
:100C0000F801C190D1908F016B2D70E056FC02C0AD
:100C10006FEF7FEFC6010E9428075C01D5CFB701B7
:100C200080E290E00E9433074A94D2CFF60157FC4D
:100C3000859157FE81916F01B70190E00E943307C3
:100C400031103A94B1E0AB1AB108C7CF843619F02D
:100C5000893609F074C0F80157FE6AC0619171913C
:100C6000819191918F01E52DEF76DE2E97FF09C0DE
:100C700090958095709561957F4F8F4F9F4F6894A9
:100C8000D7F82AE030E0A4010E946307C82EC818F4
:100C9000AC2C5D2CD6FE0CC0E89450F8CB1440F47C
:100CA000D4FE05C0D2FC03C05D2D5E7E552EAB2C5C
:100CB00054FE98C0FE01EC0DF11D8081803309F0D7
:100CC0008AC0652D697E562E752D7870372E53FC9F
:100CD00098C050FE92C0BC2CA41418F44C0CB42C38
:100CE000BA1854FE94C0B70180E390E00E94330725
:100CF00052FE09C088E790E051FE02C088E590E00E
:100D0000B7010E943307CB1408F48DC0CA94D12CCC
:100D10008FEFC81AD80AC80CD91CD6018E916D0164
:100D2000B70190E00E9433078C149D04B1F758CFAF
:100D300061917191072E000C880B990B93CFD52CE4
:100D4000E894D4F82AE030E0853739F1F52DF97FC1
:100D5000DF2E8037A9F058F48835A9F08F36D9F006
:100D6000F701868197812F96E2E10C94DD078837A1
:100D7000B9F7D4FE02C06894D2F820E130E00DC08B
:100D80006894D4F8F6CF54FE03C02F2F2660D22EDD
:100D900020E132E002C028E030E0F801D7FE15C0C3
:100DA00041915191619171914C875D876E877F87E9
:100DB0008F01A4016C857D858E859F850E946307C8
:100DC000C82EC818E894D7F863CF81919191AC01EF
:100DD00070E060E0E9CF52FC02C0A39475CFA39409
:100DE000A39472CF852D867809F46ECFF6CFB70124
:100DF00080E290E00E943307A394A414C0F3312C46
:100E000070CF342C3A18A41408F46BCFF8CF852D8A
:100E1000867809F478CF8BE251FE80E257FC8DE2B0
:100E2000B70190E06ECFB70180E390E00E943307F6
:100E3000BA9469CF8FEF9FEF96CFFC010590615078
:100E400070400110D8F7809590958E0F9F1F0895E0
:100E5000FC016150704001900110D8F78095909589
:100E60008E0F9F1F08950F931F93CF93DF93182F1B
:100E7000092FEB018B8181FD09C01FEF0FEF812F3F
:100E8000902FDF91CF911F910F91089582FF14C091
:100E90002E813F818C819D81281739073CF4E881A0
:100EA000F981CF0101969983888310838E819F8178
:100EB00001969F838E83E3CFE885F985812F09957D
:100EC000892BA1F3DACFFA01AA27283051F120317A
:100ED00081F1E8946F936E7F6E5F7F4F8F4F9F4FCE
:100EE000AF4FB1E03ED0B4E03CD0670F781F891F10
:100EF0009A1FA11D680F791F8A1F911DA11D6A0FDE
:100F0000711D811D911DA11D20D009F468943F9190
:100F10002AE0269F11243019305D3193DEF6CF018F
:100F20000895462F4770405D4193B3E00FD0C9F755
:100F3000F6CF462F4F70405D4A3318F0495D31FDC2
:100F40004052419302D0A9F7EACFB4E0A695979515
:100F5000879577956795BA95C9F7009761057105EB
:100F600008959B01AC010A2E069457954795379535
:100F70002795BA95C9F7620F731F841F951FA01D8F
:100F800008952F923F924F925F926F927F928F922D
:100F90009F92AF92BF92CF92DF92EF92FF920F9308
:100FA0001F93CF93DF93CDB7DEB7CA1BDB0B0FB612
:100FB000F894DEBF0FBECDBF09942A8839884888CF
:100FC0005F846E847D848C849B84AA84B984C88465
:100FD000DF80EE80FD800C811B81AA81B981CE0F5C
:100FE000D11D0FB6F894DEBF0FBECDBFED01089541
:040FF000F894FFCFA3
:100FF40050726F62657072756566756E67205465B0
:10100400696C20320A0D0A0D00256C64206D733A58
:101014002030782578202D202D202564200A0D00ED
:10102400256C64206D733A2030782578200A0D00F1
:101034006D6974746C657265205370616E6E756E43
:10104400673A202564206D563B206B6C65696E738E
:101054007465205370616E6E756E673A2025642046
:101064006D563B2067726F657373746520537061AE
:101074006E6E756E673A202564206D56200A0D0049
:00000001FF
